{
  "_format": "hh-sol-artifact-1",
  "contractName": "DemocracyChain",
  "sourceName": "contracts/DemocracyChain.sol",
  "abi": [
    {
      "inputs": [
        {
          "internalType": "uint256",
          "name": "_registrationDeadline",
          "type": "uint256"
        },
        {
          "internalType": "uint256",
          "name": "_votingDeadline",
          "type": "uint256"
        }
      ],
      "stateMutability": "nonpayable",
      "type": "constructor"
    },
    {
      "inputs": [],
      "name": "AlreadyVoted",
      "type": "error"
    },
    {
      "inputs": [],
      "name": "CandidateAlreadyRegistered",
      "type": "error"
    },
    {
      "inputs": [],
      "name": "CitizenAlreadyRegistered",
      "type": "error"
    },
    {
      "inputs": [],
      "name": "NotRegistered",
      "type": "error"
    },
    {
      "inputs": [],
      "name": "NotValidCandidate",
      "type": "error"
    },
    {
      "inputs": [],
      "name": "NotValidDates",
      "type": "error"
    },
    {
      "inputs": [],
      "name": "RegistrationClosed",
      "type": "error"
    },
    {
      "inputs": [],
      "name": "VotingClosed",
      "type": "error"
    },
    {
      "anonymous": false,
      "inputs": [
        {
          "indexed": false,
          "internalType": "string",
          "name": "dni",
          "type": "string"
        },
        {
          "indexed": false,
          "internalType": "string",
          "name": "name",
          "type": "string"
        },
        {
          "indexed": true,
          "internalType": "address",
          "name": "wallet",
          "type": "address"
        }
      ],
      "name": "CandidateAdded",
      "type": "event"
    },
    {
      "anonymous": false,
      "inputs": [
        {
          "indexed": true,
          "internalType": "address",
          "name": "wallet",
          "type": "address"
        },
        {
          "indexed": false,
          "internalType": "string",
          "name": "dni",
          "type": "string"
        }
      ],
      "name": "CitizenRegistered",
      "type": "event"
    },
    {
      "anonymous": false,
      "inputs": [
        {
          "indexed": true,
          "internalType": "address",
          "name": "voter",
          "type": "address"
        },
        {
          "indexed": false,
          "internalType": "string",
          "name": "candidateDni",
          "type": "string"
        }
      ],
      "name": "Voted",
      "type": "event"
    },
    {
      "inputs": [],
      "name": "ADMIN",
      "outputs": [
        {
          "internalType": "address",
          "name": "",
          "type": "address"
        }
      ],
      "stateMutability": "view",
      "type": "function"
    },
    {
      "inputs": [],
      "name": "REGISTRATION_DEADLINE",
      "outputs": [
        {
          "internalType": "uint256",
          "name": "",
          "type": "uint256"
        }
      ],
      "stateMutability": "view",
      "type": "function"
    },
    {
      "inputs": [],
      "name": "VOTING_DEADLINE",
      "outputs": [
        {
          "internalType": "uint256",
          "name": "",
          "type": "uint256"
        }
      ],
      "stateMutability": "view",
      "type": "function"
    },
    {
      "inputs": [],
      "name": "addCandidate",
      "outputs": [],
      "stateMutability": "nonpayable",
      "type": "function"
    },
    {
      "inputs": [
        {
          "internalType": "string",
          "name": "_dni",
          "type": "string"
        },
        {
          "internalType": "string",
          "name": "_name",
          "type": "string"
        }
      ],
      "name": "addCitizenCandidate",
      "outputs": [],
      "stateMutability": "nonpayable",
      "type": "function"
    },
    {
      "inputs": [
        {
          "internalType": "uint256",
          "name": "",
          "type": "uint256"
        }
      ],
      "name": "candidateList",
      "outputs": [
        {
          "internalType": "bytes32",
          "name": "",
          "type": "bytes32"
        }
      ],
      "stateMutability": "view",
      "type": "function"
    },
    {
      "inputs": [
        {
          "internalType": "bytes32",
          "name": "",
          "type": "bytes32"
        }
      ],
      "name": "candidates",
      "outputs": [
        {
          "components": [
            {
              "components": [
                {
                  "internalType": "string",
                  "name": "dni",
                  "type": "string"
                },
                {
                  "internalType": "string",
                  "name": "name",
                  "type": "string"
                },
                {
                  "internalType": "address",
                  "name": "wallet",
                  "type": "address"
                }
              ],
              "internalType": "struct DemocracyChain.Person",
              "name": "person",
              "type": "tuple"
            },
            {
              "internalType": "bool",
              "name": "registered",
              "type": "bool"
            },
            {
              "internalType": "bool",
              "name": "voted",
              "type": "bool"
            }
          ],
          "internalType": "struct DemocracyChain.Citizen",
          "name": "citizen",
          "type": "tuple"
        },
        {
          "internalType": "uint256",
          "name": "voteCount",
          "type": "uint256"
        }
      ],
      "stateMutability": "view",
      "type": "function"
    },
    {
      "inputs": [
        {
          "internalType": "bytes32",
          "name": "",
          "type": "bytes32"
        }
      ],
      "name": "citizens",
      "outputs": [
        {
          "components": [
            {
              "internalType": "string",
              "name": "dni",
              "type": "string"
            },
            {
              "internalType": "string",
              "name": "name",
              "type": "string"
            },
            {
              "internalType": "address",
              "name": "wallet",
              "type": "address"
            }
          ],
          "internalType": "struct DemocracyChain.Person",
          "name": "person",
          "type": "tuple"
        },
        {
          "internalType": "bool",
          "name": "registered",
          "type": "bool"
        },
        {
          "internalType": "bool",
          "name": "voted",
          "type": "bool"
        }
      ],
      "stateMutability": "view",
      "type": "function"
    },
    {
      "inputs": [
        {
          "internalType": "string",
          "name": "_dni",
          "type": "string"
        }
      ],
      "name": "getCandidate",
      "outputs": [
        {
          "components": [
            {
              "components": [
                {
                  "components": [
                    {
                      "internalType": "string",
                      "name": "dni",
                      "type": "string"
                    },
                    {
                      "internalType": "string",
                      "name": "name",
                      "type": "string"
                    },
                    {
                      "internalType": "address",
                      "name": "wallet",
                      "type": "address"
                    }
                  ],
                  "internalType": "struct DemocracyChain.Person",
                  "name": "person",
                  "type": "tuple"
                },
                {
                  "internalType": "bool",
                  "name": "registered",
                  "type": "bool"
                },
                {
                  "internalType": "bool",
                  "name": "voted",
                  "type": "bool"
                }
              ],
              "internalType": "struct DemocracyChain.Citizen",
              "name": "citizen",
              "type": "tuple"
            },
            {
              "internalType": "uint256",
              "name": "voteCount",
              "type": "uint256"
            }
          ],
          "internalType": "struct DemocracyChain.Candidate",
          "name": "",
          "type": "tuple"
        }
      ],
      "stateMutability": "view",
      "type": "function"
    },
    {
      "inputs": [
        {
          "internalType": "uint256",
          "name": "index",
          "type": "uint256"
        }
      ],
      "name": "getCandidateByIndex",
      "outputs": [
        {
          "components": [
            {
              "components": [
                {
                  "components": [
                    {
                      "internalType": "string",
                      "name": "dni",
                      "type": "string"
                    },
                    {
                      "internalType": "string",
                      "name": "name",
                      "type": "string"
                    },
                    {
                      "internalType": "address",
                      "name": "wallet",
                      "type": "address"
                    }
                  ],
                  "internalType": "struct DemocracyChain.Person",
                  "name": "person",
                  "type": "tuple"
                },
                {
                  "internalType": "bool",
                  "name": "registered",
                  "type": "bool"
                },
                {
                  "internalType": "bool",
                  "name": "voted",
                  "type": "bool"
                }
              ],
              "internalType": "struct DemocracyChain.Citizen",
              "name": "citizen",
              "type": "tuple"
            },
            {
              "internalType": "uint256",
              "name": "voteCount",
              "type": "uint256"
            }
          ],
          "internalType": "struct DemocracyChain.Candidate",
          "name": "",
          "type": "tuple"
        }
      ],
      "stateMutability": "view",
      "type": "function"
    },
    {
      "inputs": [],
      "name": "getCandidateCount",
      "outputs": [
        {
          "internalType": "uint256",
          "name": "",
          "type": "uint256"
        }
      ],
      "stateMutability": "view",
      "type": "function"
    },
    {
      "inputs": [],
      "name": "getCitizen",
      "outputs": [
        {
          "components": [
            {
              "components": [
                {
                  "internalType": "string",
                  "name": "dni",
                  "type": "string"
                },
                {
                  "internalType": "string",
                  "name": "name",
                  "type": "string"
                },
                {
                  "internalType": "address",
                  "name": "wallet",
                  "type": "address"
                }
              ],
              "internalType": "struct DemocracyChain.Person",
              "name": "person",
              "type": "tuple"
            },
            {
              "internalType": "bool",
              "name": "registered",
              "type": "bool"
            },
            {
              "internalType": "bool",
              "name": "voted",
              "type": "bool"
            }
          ],
          "internalType": "struct DemocracyChain.Citizen",
          "name": "",
          "type": "tuple"
        }
      ],
      "stateMutability": "view",
      "type": "function"
    },
    {
      "inputs": [
        {
          "internalType": "string",
          "name": "_dni",
          "type": "string"
        },
        {
          "internalType": "string",
          "name": "_name",
          "type": "string"
        }
      ],
      "name": "registerCitizen",
      "outputs": [],
      "stateMutability": "nonpayable",
      "type": "function"
    },
    {
      "inputs": [
        {
          "internalType": "string",
          "name": "_dni",
          "type": "string"
        }
      ],
      "name": "vote",
      "outputs": [],
      "stateMutability": "nonpayable",
      "type": "function"
    },
    {
      "inputs": [
        {
          "internalType": "address",
          "name": "",
          "type": "address"
        }
      ],
      "name": "walletToDni",
      "outputs": [
        {
          "internalType": "bytes32",
          "name": "",
          "type": "bytes32"
        }
      ],
      "stateMutability": "view",
      "type": "function"
    }
  ],
  "bytecode": "0x60e060405234801561001057600080fd5b50604051612ebf380380612ebf8339818101604052810190610032919061012c565b80821061006b576040517fbd5917b500000000000000000000000000000000000000000000000000000000815260040160405180910390fd5b8160a081815250508060c0818152505060a05142106100b6576040517f2fc209f300000000000000000000000000000000000000000000000000000000815260040160405180910390fd5b3373ffffffffffffffffffffffffffffffffffffffff1660808173ffffffffffffffffffffffffffffffffffffffff1681525050505061016c565b600080fd5b6000819050919050565b610109816100f6565b811461011457600080fd5b50565b60008151905061012681610100565b92915050565b60008060408385031215610143576101426100f1565b5b600061015185828601610117565b925050602061016285828601610117565b9150509250929050565b60805160a05160c051612d086101b760003960008181611b010152611ec2015260008181610540015281816109ec01528181610e9e01526117b5015260006107560152612d086000f3fe608060405234801561001057600080fd5b50600436106100f55760003560e01c806378f0ea2111610097578063c0fa657311610066578063c0fa65731461028b578063cffc1250146102a7578063f276669d146102c5578063fc36e15b146102f5576100f5565b806378f0ea21146101df578063ab172cf5146101fb578063b13c744b1461022b578063bc7b0f2c1461025b576100f5565b80632a0acc6a116100d35780632a0acc6a1461016757806330a56347146101855780633ba6acb9146101a357806375043ebb146101d5576100f5565b80630b0188f7146100fa5780630f05602d146101185780631a0478d514610136575b600080fd5b610102610311565b60405161010f9190612375565b60405180910390f35b61012061053e565b60405161012d91906123b0565b60405180910390f35b610150600480360381019061014b919061240b565b610562565b60405161015e929190612438565b60405180910390f35b61016f610754565b60405161017c9190612477565b60405180910390f35b61018d610778565b60405161019a91906123b0565b60405180910390f35b6101bd60048036038101906101b8919061240b565b610785565b6040516101cc939291906124f8565b60405180910390f35b6101dd61094d565b005b6101f960048036038101906101f4919061259b565b610e9c565b005b61021560048036038101906102109190612648565b611544565b6040516102229190612711565b60405180910390f35b61024560048036038101906102409190612648565b611777565b6040516102529190612742565b60405180910390f35b61027560048036038101906102709190612789565b61179b565b6040516102829190612742565b60405180910390f35b6102a560048036038101906102a0919061259b565b6117b3565b005b6102af611aff565b6040516102bc91906123b0565b60405180910390f35b6102df60048036038101906102da91906127b6565b611b23565b6040516102ec9190612711565b60405180910390f35b61030f600480360381019061030a91906127b6565b611d85565b005b610319612160565b600080600260003373ffffffffffffffffffffffffffffffffffffffff1673ffffffffffffffffffffffffffffffffffffffff1681526020019081526020016000205481526020019081526020016000206040518060600160405290816000820160405180606001604052908160008201805461039590612832565b80601f01602080910402602001604051908101604052809291908181526020018280546103c190612832565b801561040e5780601f106103e35761010080835404028352916020019161040e565b820191906000526020600020905b8154815290600101906020018083116103f157829003601f168201915b5050505050815260200160018201805461042790612832565b80601f016020809104026020016040519081016040528092919081815260200182805461045390612832565b80156104a05780601f10610475576101008083540402835291602001916104a0565b820191906000526020600020905b81548152906001019060200180831161048357829003601f168201915b505050505081526020016002820160009054906101000a900473ffffffffffffffffffffffffffffffffffffffff1673ffffffffffffffffffffffffffffffffffffffff1673ffffffffffffffffffffffffffffffffffffffff168152505081526020016003820160009054906101000a900460ff161515151581526020016003820160019054906101000a900460ff161515151581525050905090565b7f000000000000000000000000000000000000000000000000000000000000000081565b600160205280600052604060002060009150905080600001604051806060016040529081600082016040518060600160405290816000820180546105a590612832565b80601f01602080910402602001604051908101604052809291908181526020018280546105d190612832565b801561061e5780601f106105f35761010080835404028352916020019161061e565b820191906000526020600020905b81548152906001019060200180831161060157829003601f168201915b5050505050815260200160018201805461063790612832565b80601f016020809104026020016040519081016040528092919081815260200182805461066390612832565b80156106b05780601f10610685576101008083540402835291602001916106b0565b820191906000526020600020905b81548152906001019060200180831161069357829003601f168201915b505050505081526020016002820160009054906101000a900473ffffffffffffffffffffffffffffffffffffffff1673ffffffffffffffffffffffffffffffffffffffff1673ffffffffffffffffffffffffffffffffffffffff168152505081526020016003820160009054906101000a900460ff161515151581526020016003820160019054906101000a900460ff161515151581525050908060040154905082565b7f000000000000000000000000000000000000000000000000000000000000000081565b6000600380549050905090565b6000602052806000526040600020600091509050806000016040518060600160405290816000820180546107b890612832565b80601f01602080910402602001604051908101604052809291908181526020018280546107e490612832565b80156108315780601f1061080657610100808354040283529160200191610831565b820191906000526020600020905b81548152906001019060200180831161081457829003601f168201915b5050505050815260200160018201805461084a90612832565b80601f016020809104026020016040519081016040528092919081815260200182805461087690612832565b80156108c35780601f10610898576101008083540402835291602001916108c3565b820191906000526020600020905b8154815290600101906020018083116108a657829003601f168201915b505050505081526020016002820160009054906101000a900473ffffffffffffffffffffffffffffffffffffffff1673ffffffffffffffffffffffffffffffffffffffff1673ffffffffffffffffffffffffffffffffffffffff1681525050908060030160009054906101000a900460ff16908060030160019054906101000a900460ff16905083565b6000600260003373ffffffffffffffffffffffffffffffffffffffff1673ffffffffffffffffffffffffffffffffffffffff16815260200190815260200160002054905060008082815260200190815260200160002060030160009054906101000a900460ff166109ea576040517faba4733900000000000000000000000000000000000000000000000000000000815260040160405180910390fd5b7f0000000000000000000000000000000000000000000000000000000000000000421115610a44576040517f2fc209f300000000000000000000000000000000000000000000000000000000815260040160405180910390fd5b6000600260003373ffffffffffffffffffffffffffffffffffffffff1673ffffffffffffffffffffffffffffffffffffffff168152602001908152602001600020549050600073ffffffffffffffffffffffffffffffffffffffff166001600083815260200190815260200160002060000160000160020160009054906101000a900473ffffffffffffffffffffffffffffffffffffffff1673ffffffffffffffffffffffffffffffffffffffff1614610b2a576040517f507f223100000000000000000000000000000000000000000000000000000000815260040160405180910390fd5b600080600083815260200190815260200160002060405180606001604052908160008201604051806060016040529081600082018054610b6990612832565b80601f0160208091040260200160405190810160405280929190818152602001828054610b9590612832565b8015610be25780601f10610bb757610100808354040283529160200191610be2565b820191906000526020600020905b815481529060010190602001808311610bc557829003601f168201915b50505050508152602001600182018054610bfb90612832565b80601f0160208091040260200160405190810160405280929190818152602001828054610c2790612832565b8015610c745780601f10610c4957610100808354040283529160200191610c74565b820191906000526020600020905b815481529060010190602001808311610c5757829003601f168201915b505050505081526020016002820160009054906101000a900473ffffffffffffffffffffffffffffffffffffffff1673ffffffffffffffffffffffffffffffffffffffff1673ffffffffffffffffffffffffffffffffffffffff168152505081526020016003820160009054906101000a900460ff161515151581526020016003820160019054906101000a900460ff161515151581525050905060405180604001604052808281526020016000815250600160008481526020019081526020016000206000820151816000016000820151816000016000820151816000019081610d5f9190612a3e565b506020820151816001019081610d759190612a3e565b5060408201518160020160006101000a81548173ffffffffffffffffffffffffffffffffffffffff021916908373ffffffffffffffffffffffffffffffffffffffff160217905550505060208201518160030160006101000a81548160ff02191690831515021790555060408201518160030160016101000a81548160ff02191690831515021790555050506020820151816004015590505060038290806001815401808255809150506001900390600052602060002001600090919091909150553373ffffffffffffffffffffffffffffffffffffffff167f151e6f435125b4660675b16ab8299e8bdc5e7e5f3d2982e003a901d9164756e2826000015160000151836000015160200151604051610e8f929190612b5a565b60405180910390a2505050565b7f0000000000000000000000000000000000000000000000000000000000000000421115610ef6576040517f2fc209f300000000000000000000000000000000000000000000000000000000815260040160405180910390fd5b6000610f4585858080601f016020809104026020016040519081016040528093929190818152602001838380828437600081840152601f19601f8201169050808301925050505050505061214f565b905060008082815260200190815260200160002060030160009054906101000a900460ff1615610fa1576040517f24a3f46a00000000000000000000000000000000000000000000000000000000815260040160405180910390fd5b6040518060600160405280604051806060016040528088888080601f016020809104026020016040519081016040528093929190818152602001838380828437600081840152601f19601f82011690508083019250505050505050815260200186868080601f016020809104026020016040519081016040528093929190818152602001838380828437600081840152601f19601f8201169050808301925050505050505081526020013373ffffffffffffffffffffffffffffffffffffffff1681525081526020016001151581526020016000151581525060008083815260200190815260200160002060008201518160000160008201518160000190816110aa9190612a3e565b5060208201518160010190816110c09190612a3e565b5060408201518160020160006101000a81548173ffffffffffffffffffffffffffffffffffffffff021916908373ffffffffffffffffffffffffffffffffffffffff160217905550505060208201518160030160006101000a81548160ff02191690831515021790555060408201518160030160016101000a81548160ff02191690831515021790555090505080600260003373ffffffffffffffffffffffffffffffffffffffff1673ffffffffffffffffffffffffffffffffffffffff168152602001908152602001600020819055503373ffffffffffffffffffffffffffffffffffffffff167f106c826edcad7be8b769067aebb234b0e19866d19c9ebe48e6f61e994b9e03aa86866040516111d9929190612bcd565b60405180910390a260405180604001604052806000808481526020019081526020016000206040518060600160405290816000820160405180606001604052908160008201805461122990612832565b80601f016020809104026020016040519081016040528092919081815260200182805461125590612832565b80156112a25780601f10611277576101008083540402835291602001916112a2565b820191906000526020600020905b81548152906001019060200180831161128557829003601f168201915b505050505081526020016001820180546112bb90612832565b80601f01602080910402602001604051908101604052809291908181526020018280546112e790612832565b80156113345780601f1061130957610100808354040283529160200191611334565b820191906000526020600020905b81548152906001019060200180831161131757829003601f168201915b505050505081526020016002820160009054906101000a900473ffffffffffffffffffffffffffffffffffffffff1673ffffffffffffffffffffffffffffffffffffffff1673ffffffffffffffffffffffffffffffffffffffff168152505081526020016003820160009054906101000a900460ff161515151581526020016003820160019054906101000a900460ff161515151581525050815260200160008152506001600083815260200190815260200160002060008201518160000160008201518160000160008201518160000190816114119190612a3e565b5060208201518160010190816114279190612a3e565b5060408201518160020160006101000a81548173ffffffffffffffffffffffffffffffffffffffff021916908373ffffffffffffffffffffffffffffffffffffffff160217905550505060208201518160030160006101000a81548160ff02191690831515021790555060408201518160030160016101000a81548160ff02191690831515021790555050506020820151816004015590505060038190806001815401808255809150506001900390600052602060002001600090919091909150553373ffffffffffffffffffffffffffffffffffffffff167f151e6f435125b4660675b16ab8299e8bdc5e7e5f3d2982e003a901d9164756e2868686866040516115359493929190612bf1565b60405180910390a25050505050565b61154c61218b565b60006003838154811061156257611561612c2c565b5b906000526020600020015490506001600082815260200190815260200160002060405180604001604052908160008201604051806060016040529081600082016040518060600160405290816000820180546115bd90612832565b80601f01602080910402602001604051908101604052809291908181526020018280546115e990612832565b80156116365780601f1061160b57610100808354040283529160200191611636565b820191906000526020600020905b81548152906001019060200180831161161957829003601f168201915b5050505050815260200160018201805461164f90612832565b80601f016020809104026020016040519081016040528092919081815260200182805461167b90612832565b80156116c85780601f1061169d576101008083540402835291602001916116c8565b820191906000526020600020905b8154815290600101906020018083116116ab57829003601f168201915b505050505081526020016002820160009054906101000a900473ffffffffffffffffffffffffffffffffffffffff1673ffffffffffffffffffffffffffffffffffffffff1673ffffffffffffffffffffffffffffffffffffffff168152505081526020016003820160009054906101000a900460ff161515151581526020016003820160019054906101000a900460ff1615151515815250508152602001600482015481525050915050919050565b6003818154811061178757600080fd5b906000526020600020016000915090505481565b60026020528060005260406000206000915090505481565b7f000000000000000000000000000000000000000000000000000000000000000042111561180d576040517f2fc209f300000000000000000000000000000000000000000000000000000000815260040160405180910390fd5b600061185c85858080601f016020809104026020016040519081016040528093929190818152602001838380828437600081840152601f19601f8201169050808301925050505050505061214f565b905060008082815260200190815260200160002060030160009054906101000a900460ff16156118b8576040517f24a3f46a00000000000000000000000000000000000000000000000000000000815260040160405180910390fd5b6040518060600160405280604051806060016040528088888080601f016020809104026020016040519081016040528093929190818152602001838380828437600081840152601f19601f82011690508083019250505050505050815260200186868080601f016020809104026020016040519081016040528093929190818152602001838380828437600081840152601f19601f8201169050808301925050505050505081526020013373ffffffffffffffffffffffffffffffffffffffff1681525081526020016001151581526020016000151581525060008083815260200190815260200160002060008201518160000160008201518160000190816119c19190612a3e565b5060208201518160010190816119d79190612a3e565b5060408201518160020160006101000a81548173ffffffffffffffffffffffffffffffffffffffff021916908373ffffffffffffffffffffffffffffffffffffffff160217905550505060208201518160030160006101000a81548160ff02191690831515021790555060408201518160030160016101000a81548160ff02191690831515021790555090505080600260003373ffffffffffffffffffffffffffffffffffffffff1673ffffffffffffffffffffffffffffffffffffffff168152602001908152602001600020819055503373ffffffffffffffffffffffffffffffffffffffff167f106c826edcad7be8b769067aebb234b0e19866d19c9ebe48e6f61e994b9e03aa8686604051611af0929190612bcd565b60405180910390a25050505050565b7f000000000000000000000000000000000000000000000000000000000000000081565b611b2b61218b565b6000611b7a84848080601f016020809104026020016040519081016040528093929190818152602001838380828437600081840152601f19601f8201169050808301925050505050505061214f565b9050600160008281526020019081526020016000206040518060400160405290816000820160405180606001604052908160008201604051806060016040529081600082018054611bca90612832565b80601f0160208091040260200160405190810160405280929190818152602001828054611bf690612832565b8015611c435780601f10611c1857610100808354040283529160200191611c43565b820191906000526020600020905b815481529060010190602001808311611c2657829003601f168201915b50505050508152602001600182018054611c5c90612832565b80601f0160208091040260200160405190810160405280929190818152602001828054611c8890612832565b8015611cd55780601f10611caa57610100808354040283529160200191611cd5565b820191906000526020600020905b815481529060010190602001808311611cb857829003601f168201915b505050505081526020016002820160009054906101000a900473ffffffffffffffffffffffffffffffffffffffff1673ffffffffffffffffffffffffffffffffffffffff1673ffffffffffffffffffffffffffffffffffffffff168152505081526020016003820160009054906101000a900460ff161515151581526020016003820160019054906101000a900460ff161515151581525050815260200160048201548152505091505092915050565b6000600260003373ffffffffffffffffffffffffffffffffffffffff1673ffffffffffffffffffffffffffffffffffffffff16815260200190815260200160002054905060008082815260200190815260200160002060030160009054906101000a900460ff16611e22576040517faba4733900000000000000000000000000000000000000000000000000000000815260040160405180910390fd5b6000600260003373ffffffffffffffffffffffffffffffffffffffff1673ffffffffffffffffffffffffffffffffffffffff16815260200190815260200160002054905060008082815260200190815260200160002060030160019054906101000a900460ff1615611ec0576040517f7c9a1cf900000000000000000000000000000000000000000000000000000000815260040160405180910390fd5b7f0000000000000000000000000000000000000000000000000000000000000000421115611f1a576040517f66b6cb4a00000000000000000000000000000000000000000000000000000000815260040160405180910390fd5b611f6784848080601f016020809104026020016040519081016040528093929190818152602001838380828437600081840152601f19601f8201169050808301925050505050505061214f565b600073ffffffffffffffffffffffffffffffffffffffff166001600083815260200190815260200160002060000160000160020160009054906101000a900473ffffffffffffffffffffffffffffffffffffffff1673ffffffffffffffffffffffffffffffffffffffff1603612009576040517f6af4222a00000000000000000000000000000000000000000000000000000000815260040160405180910390fd5b600061205886868080601f016020809104026020016040519081016040528093929190818152602001838380828437600081840152601f19601f8201169050808301925050505050505061214f565b9050600160008281526020019081526020016000206004016000815461207d90612c8a565b919050819055506000600260003373ffffffffffffffffffffffffffffffffffffffff1673ffffffffffffffffffffffffffffffffffffffff168152602001908152602001600020549050600160008083815260200190815260200160002060030160016101000a81548160ff0219169083151502179055503373ffffffffffffffffffffffffffffffffffffffff167fcb6783276e8a4347387036bbfea000268f0a4b1f8c46ac79980609f2af8d2acd888860405161213e929190612bcd565b60405180910390a250505050505050565b600081805190602001209050919050565b60405180606001604052806121736121ab565b81526020016000151581526020016000151581525090565b604051806040016040528061219e612160565b8152602001600081525090565b60405180606001604052806060815260200160608152602001600073ffffffffffffffffffffffffffffffffffffffff1681525090565b600081519050919050565b600082825260208201905092915050565b60005b8381101561221c578082015181840152602081019050612201565b60008484015250505050565b6000601f19601f8301169050919050565b6000612244826121e2565b61224e81856121ed565b935061225e8185602086016121fe565b61226781612228565b840191505092915050565b600073ffffffffffffffffffffffffffffffffffffffff82169050919050565b600061229d82612272565b9050919050565b6122ad81612292565b82525050565b600060608301600083015184820360008601526122d08282612239565b915050602083015184820360208601526122ea8282612239565b91505060408301516122ff60408601826122a4565b508091505092915050565b60008115159050919050565b61231f8161230a565b82525050565b6000606083016000830151848203600086015261234282826122b3565b91505060208301516123576020860182612316565b50604083015161236a6040860182612316565b508091505092915050565b6000602082019050818103600083015261238f8184612325565b905092915050565b6000819050919050565b6123aa81612397565b82525050565b60006020820190506123c560008301846123a1565b92915050565b600080fd5b600080fd5b6000819050919050565b6123e8816123d5565b81146123f357600080fd5b50565b600081359050612405816123df565b92915050565b600060208284031215612421576124206123cb565b5b600061242f848285016123f6565b91505092915050565b600060408201905081810360008301526124528185612325565b905061246160208301846123a1565b9392505050565b61247181612292565b82525050565b600060208201905061248c6000830184612468565b92915050565b600060608301600083015184820360008601526124af8282612239565b915050602083015184820360208601526124c98282612239565b91505060408301516124de60408601826122a4565b508091505092915050565b6124f28161230a565b82525050565b600060608201905081810360008301526125128186612492565b905061252160208301856124e9565b61252e60408301846124e9565b949350505050565b600080fd5b600080fd5b600080fd5b60008083601f84011261255b5761255a612536565b5b8235905067ffffffffffffffff8111156125785761257761253b565b5b60208301915083600182028301111561259457612593612540565b5b9250929050565b600080600080604085870312156125b5576125b46123cb565b5b600085013567ffffffffffffffff8111156125d3576125d26123d0565b5b6125df87828801612545565b9450945050602085013567ffffffffffffffff811115612602576126016123d0565b5b61260e87828801612545565b925092505092959194509250565b61262581612397565b811461263057600080fd5b50565b6000813590506126428161261c565b92915050565b60006020828403121561265e5761265d6123cb565b5b600061266c84828501612633565b91505092915050565b6000606083016000830151848203600086015261269282826122b3565b91505060208301516126a76020860182612316565b5060408301516126ba6040860182612316565b508091505092915050565b6126ce81612397565b82525050565b600060408301600083015184820360008601526126f18282612675565b915050602083015161270660208601826126c5565b508091505092915050565b6000602082019050818103600083015261272b81846126d4565b905092915050565b61273c816123d5565b82525050565b60006020820190506127576000830184612733565b92915050565b61276681612292565b811461277157600080fd5b50565b6000813590506127838161275d565b92915050565b60006020828403121561279f5761279e6123cb565b5b60006127ad84828501612774565b91505092915050565b600080602083850312156127cd576127cc6123cb565b5b600083013567ffffffffffffffff8111156127eb576127ea6123d0565b5b6127f785828601612545565b92509250509250929050565b7f4e487b7100000000000000000000000000000000000000000000000000000000600052602260045260246000fd5b6000600282049050600182168061284a57607f821691505b60208210810361285d5761285c612803565b5b50919050565b7f4e487b7100000000000000000000000000000000000000000000000000000000600052604160045260246000fd5b60008190508160005260206000209050919050565b60006020601f8301049050919050565b600082821b905092915050565b6000600883026128f47fffffffffffffffffffffffffffffffffffffffffffffffffffffffffffffffff826128b7565b6128fe86836128b7565b95508019841693508086168417925050509392505050565b6000819050919050565b600061293b61293661293184612397565b612916565b612397565b9050919050565b6000819050919050565b61295583612920565b61296961296182612942565b8484546128c4565b825550505050565b600090565b61297e612971565b61298981848461294c565b505050565b5b818110156129ad576129a2600082612976565b60018101905061298f565b5050565b601f8211156129f2576129c381612892565b6129cc846128a7565b810160208510156129db578190505b6129ef6129e7856128a7565b83018261298e565b50505b505050565b600082821c905092915050565b6000612a15600019846008026129f7565b1980831691505092915050565b6000612a2e8383612a04565b9150826002028217905092915050565b612a47826121e2565b67ffffffffffffffff811115612a6057612a5f612863565b5b612a6a8254612832565b612a758282856129b1565b600060209050601f831160018114612aa85760008415612a96578287015190505b612aa08582612a22565b865550612b08565b601f198416612ab686612892565b60005b82811015612ade57848901518255600182019150602085019450602081019050612ab9565b86831015612afb5784890151612af7601f891682612a04565b8355505b6001600288020188555050505b505050505050565b600082825260208201905092915050565b6000612b2c826121e2565b612b368185612b10565b9350612b468185602086016121fe565b612b4f81612228565b840191505092915050565b60006040820190508181036000830152612b748185612b21565b90508181036020830152612b888184612b21565b90509392505050565b82818337600083830152505050565b6000612bac8385612b10565b9350612bb9838584612b91565b612bc283612228565b840190509392505050565b60006020820190508181036000830152612be8818486612ba0565b90509392505050565b60006040820190508181036000830152612c0c818688612ba0565b90508181036020830152612c21818486612ba0565b905095945050505050565b7f4e487b7100000000000000000000000000000000000000000000000000000000600052603260045260246000fd5b7f4e487b7100000000000000000000000000000000000000000000000000000000600052601160045260246000fd5b6000612c9582612397565b91507fffffffffffffffffffffffffffffffffffffffffffffffffffffffffffffffff8203612cc757612cc6612c5b565b5b60018201905091905056fea2646970667358221220b87d73544bb99742d2c0a06e136332407a727695a57e5476d98c20efdef353b064736f6c634300081c0033",
  "linkReferences": {},
  "deployedLinkReferences": {}
}